:020000040000FA
:060000000A128A110C280F
:10000800FE00030EF1000A08F2000A128A11EA2A19
:100018000A128A110F2883010A128A11AC2A831244
:1000280003132D088039AE002E08B7002D08AE0046
:100038002E07AF002F08BE00AC1F23282428252830
:100048003E143E08031929282A283A283E0A031D87
:100058002E282F2837280030AD000030AC000030A3
:10006800AB000030AA00AC17AD0142280030AD004B
:100078000030AC000030AB000030AA0029088039FD
:10008800AE002E08B7062908AE002E07AF002F08CD
:10009800BF00A81F5028512852283F143F080319B1
:1000A8005628572867283F0A031D5B285C286428C0
:1000B8000030A9000030A8000030A7000030A600DA
:1000C800A817A9016F280030A9000030A800003047
:1000D800A7000030A6002908280427042604031DC9
:1000E8007628772890280030AD000030AC0000302A
:1000F800AB000030AA008030AC047F30AD04370874
:10010800AE002E08AD042D08A9002C08A8002B0865
:10011800A7002A08A600EF293E08031D9428952861
:100128009E280030A9000030A8000030A700003049
:10013800A600EF293E08AE00AF012F08B1003F0826
:100148002E02B000031CB10330087F3EB80031080E
:100158000318013E003EB9002D08B6002C08B50072
:100168002B08B4002A08B3000030AD000030AC0002
:100178000030AB000030AA000030BD000030BC00E9
:100188000030BB000030BA00BF0114293F08031932
:10019800CE28CF28EF280130AE000310B30DB40DE0
:1001A800B50DB60DAE0BD1280130AE000310AA0D67
:1001B800AB0DAC0DAD0DAE0BDA28BD1FE428E5285C
:1001C800E6282A140130AE000310BA0DBB0DBC0D91
:1001D800BD0DAE0BE82829083602031DFD282808A6
:1001E8003502031DFD2827083402031DFD282608B3
:1001F8003302031C0029012910293D172608B302E0
:100208002708031C270FB4022808031C280FB5026F
:100218002908031C290FB6020130AE002E08BF07BB
:100228001A303F02031C19291A29CA28360835042E
:100238003404330403192129222941293A14412974
:100248000130AE000310AA0DAB0DAC0DAD0DAE0B19
:100258002629BD1F3029312932292A140130AE0040
:100268000310BA0DBB0DBC0DBD0DAE0B3429FF300C
:10027800B8070318B90AFF30B907AC1F4429452944
:100288002429BF01BD1F49294A296629FF303A059B
:10029800AE00FF303B05AF00FF303C05B0007F30BB
:1002A8003D05B100310830042F042E0403195D29DF
:1002B8005E296129BF01BF0A66292A1C64296529AC
:1002C80066295E293F0803196A296B299C29013090
:1002D800AA07003003180130AB07003003180130BB
:1002E800AC07003003180130AD072D1C7C297D298F
:1002F8009C292A08AE002B08AF002C08B0002D0856
:10030800B1000130B200310DB10CB00CAF0CAE0C25
:10031800B20B87293108AD003008AC002F08AB00BC
:100328002E08AA000130B8070318B90A0030B90727
:100338003908803AFF0080307F02031DA529FF306D
:100348003802031CA829A929B729FF3083120313EF
:10035800B8000030B9000030AD000030AC0000300B
:10036800AB000030AA00831203133908803AFF005B
:1003780080307F02031DC229013038020318C529C5
:10038800C629D32983120313B801B9010030AD007F
:100398000030AC000030AB000030AA00B701831277
:1003A80003133808AE002E08BE003E1CDC29DD29E8
:1003B800DF29AC17E3297F30AE002E08AC053E08D4
:1003C800AE0003102E0CAF002F08AD003708AE00AA
:1003D8002E08AD048728080083120313A000200804
:1003E8000319F729F8290C2AF61FFB29FC290C2ADE
:1003F8007309A2007409A3007509A4007609A50071
:10040800A20A0319A30A0319A40A0319A50A142A9C
:100418007608A5007508A4007408A3007308A20054
:100428007608750474047304031D1B2A1C2A252AE4
:100438000030F6000030F5000030F4000030F30022
:10044800AB2A9630F7007708A100372A0130F70069
:100458007708A10701300310A50CA40CA30CA20C6B
:10046800FF3E031D2F2AFE302505031D3C2A3D2A89
:100478002A2A592A0130F7007708A1070130A20774
:10048800003003180130A307003003180130A40717
:10049800003003180130A50701300310A50CA40C87
:1004A800A30CA20CFF3E031D512AFF302505031D96
:1004B8005E2A5F2A3E2A6B2A0130A1020130F7002A
:1004C8000310A20DA30DA40DA50DF70B642AA41B00
:1004D8006E2A6F2A752A023021020318742A752A97
:1004E800602A2118782A792A812AFF30A205FF304C
:1004F800A3057F30A405FF30A5050310A10C210832
:10050800F700F801F901FA0118300310F70DF80D9A
:10051800F90DFA0DFF3E031D892A7708A204780811
:10052800A3047908A4047A08A504200803199D2ABD
:100538009E2AA32AF61FA12AA22AA32AA5172508BC
:10054800F6002408F5002308F4002208F300080048
:1005580001308316031385008E309F00A0308B0076
:10056800D7308100831203131E08C10083160313BA
:100578001E0883120313C0004330A9004C30A800A2
:10058800CC30A700CD30A6004008F3004108F400A5
:100598000030F41BFF30F500F60001300A128A1112
:1005A800F0210A128A11760883120313AD00750828
:1005B800AC007408AB007308AA000A128A11132051
:1005C8000A128A11B62A0A128A110C280B1DED2A62
:1005D800EE2AFF2AFC308312031381000B119F14AB
:1005E800F92A0330F000F00BF72A831203139F183F
:1005F800FE2AFF2AF52A72088A00710E8300FE0E71
:040608007E0E090059
:04400E00F43FFF3F3D
:00000001FF
